:100000000C945C010C94A31C0C9479010C94790160
:100010000C9479010C9479010C9479010C94790178
:100020000C9479010C9479010C94CB210C949F22AF
:100030000C94221B0C9479010C9479010C94790195
:100040000C9479010C9479010C9479010C94790148
:100050000C9479010C94C51B0C9479010C947901D2
:100060000C9479010C9479010C9479010C94790128
:100070000C9479010C9479010C9479010C94790118
:100080000C9479010C9479010C9479010C94790108
:100090000C9479010C9479010C9479010C947901F8
:1000A0000C9479010C9479010C94790149004A006F
:1000B0004B0029003A003B003C003D003E004C0054
:1000C0004D004E0035001E001F00200021002200C0
:1000D0005F00600061002B0014001A00080015008A
:1000E00017005C005D005E00390004001600070088
:1000F00009000A0059005A005B00E1001D001B00C6
:10010000060019000500620063005800E000E300EB
:10011000E2002C002C002C00000000000000000079
:1001200000000000000000000000000000000000CF
:1001300000000000000000000000000000000000BF
:1001400000000000000000000000000000000000AF
:10015000000000000000000000000000000000009F
:10016000000000000000000000000000000000008F
:10017000000000000000000000000000000000007F
:10018000000000001203420046004F002D0039001D
:1001900030003000300000000E034B0065006500A9
:1001A000620069006F0000000403090409023B00BB
:1001B000020100A0FA090400000103010100092165
:1001C0001101000122440007058103080001090410
:1001D00001000103000000092111010001227B0040
:1001E0000705820320000112010002000000081030
:1001F000CB691100010102000105010902A101857D
:10020000020901A100050919012908150025019518
:1002100008750181020501093009311581257F9595
:10022000027508810609381581257F9501750881B9
:1002300006050C0A38021581257F9501750881068F
:10024000C0C005010980A101850319012AB7001565
:100250000126B700950175108100C0050C0901A1A8
:1002600001850419012AA002150126A00295017535
:10027000108100C005010906A101050719E029E761
:100280001500250195087501810295017508810108
:100290000507190029FF150026FF0095067508813E
:1002A000000508190129051500250195057501911D
:1002B00002950175039101C011241FBECFEFDAE052
:1002C000DEBFCDBF11E0A0E0B1E0ECECFAE402C08B
:1002D00005900D92A43BB107D9F723E0A4EBB1E060
:1002E00001C01D92A131B207E1F70E94C9130C941D
:1002F00025250C940000811112C06C3080F4493027
:1003000070F4E42FF0E089E0689FE00DF11D112406
:10031000EE0FFF1FE455FF4F85919491089581E002
:1003200090E008950E947B01089581E008950E9465
:100330009501089581E008950E94950108950E9415
:100340009C01089508950E94A2010895A6E0B0E0DE
:10035000ECEAF1E00C94812449835A839E83309126
:10036000BB0189819A8131111AC03E81332399F0F2
:10037000222389F00E94C807182F682F89819A814B
:100380000E94A40769817A81812F0E94B00E26966F
:10039000E3E00C949D240E94B607182FF3CF0E942F
:1003A000C80769817A81F1CFFC01262F40815181F4
:1003B00062817381848195810E94A6010895CF9303
:1003C000DF93EC0161E00E94D401BE010E9497011D
:1003D000DF91CF910895CF93DF93EC0160E00E940D
:1003E000D401BE010E94A301DF91CF91089521E0C5
:1003F00030E0A90102C0440F551F8A95E2F7CA01F7
:100400000E94C6060895CF93C82F81E090E00C2E7D
:1004100002C0880F991F0A94E2F70E94040C8C2FE7
:100420000E94F701CF91089581E008950E9414027F
:100430000895CF93C82F0E9479068C2F0E94160230
:100440002FEF84E39CE0215080409040E1F700C012
:100450000000CF91089581E00E9419020E94E91BDB
:10046000089580E00E9419020E94FA1B08950F93DC
:100470001F93CF93DF938C0161E00E94D401EC01C4
:10048000B8010E949F01811106C080E0DF91CF91E9
:100490001F910F910895B801CE010E94351988234C
:1004A000A1F3B801CE010E947115882371F3B80140
:1004B000CE010E944715882341F3B801CE010E9466
:1004C000F40F882311F3F8018581882361F0C3308C
:1004D000FCE7DF07E9F058F4C115ECE7DE07A9F007
:1004E000C130DC47B9F0C8010E949A01CFCFCB35AB
:1004F0008CE7D807A9F0CC35ECE7DE0771F0CA35F8
:10050000DC4789F70E94DF0BEECF0E942B02BDCFA4
:100510000E94E70B0E943102B8CF0E94D50BE3CFB7
:100520000E94E30BE0CF0E94FE1A0E94B3020895DE
:100530000E94B7020E94031B089581E00895089568
:10054000CF93DF93D82F0E949D02C82F882319F0E4
:100550008D2F0E949F028C2FDF91CF9108950895D7
:100560000E94A002089580E00E94B00208950E94B7
:100570007E190E94B0020895CF930E947E19C82F61
:100580008091B6018C1779F0C093B6010E948E1B42
:100590006093B7017093B8018093B9019093BA0149
:1005A0008C2F0E94B002CF910895ADE0B0E0EBED4A
:1005B000F2E00C948224488759876A877B878C876E
:1005C0009D8791110E94150B1F8286E0FE013896CF
:1005D000DE01119601900D928A95E1F78D818111CE
:1005E0000DC029813A814B815C816D817E818F8133
:1005F0000E945F0A2D96E2E00C949E24CE010196A3
:100600000E94DF018111EDCFF5CFFC012481213063
:1006100021F4808191810E94FA070895662329F0D0
:100620000E94D2160E94A51708950E942C17FACF97
:10063000CF93C82F8823C9F08238C9F40E94921939
:1006400081FD13C089E30E94481A0E94840B2FEF9A
:1006500087EE93E0215080409040E1F700C0000019
:1006600089E30E94501A0E94840BCF910895833829
:10067000A1F40E94921980FDF8CF83E50E94481AE8
:100680000E94840B2FEF81EE94E021508040904037
:10069000E1F700C0000083E5E4CF8438A1F40E94B4
:1006A000921982FDE2CF87E40E94481A0E94840BCF
:1006B0002FEF81EE94E0215080409040E1F700C0A0
:1006C000000087E4CECF8CEF8C0F813A98F48C2F0A
:1006D0000E9474148111C9CF8C2F0E940D1A882397
:1006E00029F08C2F0E94501A0E94840B8C2F0E949C
:1006F000481AB9CF80E28C0F883048F4C77081E087
:1007000001C0880FCA95EAF70E94F80AACCFEBE562
:10071000EC0FE33040F4F0E0E959FE4F808190E0C7
:100720000E94AE19A2CFE8E5EC0FEB3150F4F0E0F7
:10073000EE0FFF1FEF5CFE4F808191810E94D31965
:1007400094CF83E38C0F833108F08FCF61E08C2F3F
:100750000E940E038ACF882309F456C0823879F4A8
:100760000E94921981FF50C089E30E94481A0E949A
:10077000840B89E30E94501A0E94840B08958338E9
:1007800059F40E94921980FF3FC083E50E94481AE5
:100790000E94840B83E5EECF843859F40E949219AD
:1007A00082FF32C087E40E94481A0E94840B87E4CB
:1007B000E1CF9CEF980F913AE8F290E2980F9830D1
:1007C00050F4877091E001C0990F8A95EAF7892F5C
:1007D0000E94FE0AD1CF9BE5980F933028F490E059
:1007E00080E00E94AE19089598E5980F9B3128F497
:1007F00090E080E00E94D319089593E3980F93311D
:1008000018F460E00E940E0308951F93CF93DF93C6
:10081000182FEB010E941803209739F4812F0E94B2
:10082000AB03DF91CF911F9108958FE99FE001976E
:10083000F1F700C000002197EFCF70E060E089334E
:1008400011F460E570E00E9405040895882321F00A
:100850000E94F80A0E94840B0895882321F00E94C8
:10086000FE0A0E94840B0895B0E0A0E0EAE3F4E001
:100870000C947B246C01D62FC72FFC0115810681B7
:1008800002950F700E94EE0AE82E8823F9F0E12EFF
:100890001123E1F08C2F807F803461F080E28D0F96
:1008A000883008F18C2F807E803221F4D230D8F04D
:1008B0000023C9F08091C90282FF15C082E00E9426
:1008C000A90B0E94EE0A91E0E82EE926BC2EB29414
:1008D0009FE0B922FBE0FB15B8F1EB2DF0E0E95DFC
:1008E000FA4D0C946C24E12CF1CF0C2F0F70C07FCB
:1008F00011F00295007F112399F0002359F080E256
:100900008D0F883010F0D11107C0802F0E94F80A97
:100910000E94840B8D2F5AC0802F0E94080BF8CFA5
:100920008D2F0E94AB03002379F080E28D0F883079
:1009300010F0D11104C0802F0E94FE0A03C0802F46
:100940000E940E0B0E94840BEB2DE850FF0B349796
:1009500020F40E947E190E94B002EE2089F00E94CD
:10096000EA0A80FD0DC0F60115820E94E40A0E9489
:100970000207C6010E9440060E94E40A0E94120774
:10098000CDB7DEB7E9E00C9497242C2F2F70F22E10
:10099000C07FC03219F0F29480EFF822DD2341F0DD
:1009A000D130D1F1112309F444C00023F1F0B2CFCA
:1009B0008091C90282FD15C0112359F0FF2029F052
:1009C0008F2D0E94F80A0E94840B80E00E94180379
:1009D000BBCF80E00E94AB03FF2009F4B5CF8F2D81
:1009E000ABCF112369F0011104C08F2D0E942604A2
:1009F000ABCF013009F0A8CF8F2D0E942C0BA4CFD4
:100A00000111A2CF8F2D0E942D048F2D0E94380B33
:100A10008F2D0E941C0B98CF112321F0063008F077
:100A200093CFE3CF053008F08FCF8F2D0E942D0498
:100A30008BCF0023D1F3D93349F43FEF87EE93E016
:100A4000315080409040E1F700C000008D2F0E949F
:100A5000AB037ACF8C2F86958695837069F08130B1
:100A600009F072CF8D2F9C2F9370111102C080E07E
:100A700090E00E94D31968CF8D2F9C2F9370111195
:100A800002C080E090E00E94AE195ECF612F8D2FF2
:100A90000E940E0359CF8C2F8370A1F5111154CFF2
:100AA0004D2F429546954770440F440F2D2F2F70C0
:100AB00030E0042E02C0220F331F0A94E2F790E0C8
:100AC00080E0D4FF09C08FE090E002C0880F991F3A
:100AD0004A95E2F780959095C695C695C370822B8E
:100AE000932BC23049F058F4C13019F00E94D2065D
:100AF0002BCF0E94C90628CF0E94DB0625CF0E947B
:100B0000C60622CF8695112311F08C2F8170882381
:100B100009F41ACF4D2F429546954770440F440F64
:100B20002D2F2F7030E0042E02C0220F331F0A94A5
:100B3000E2F790E080E0D4FF09C08FE090E002C0CF
:100B4000880F991F4A95E2F780959095C695C695AE
:100B5000C370822B932BC23049F058F4C13019F086
:100B60000E943D07F1CE0E943407EECE0E94460758
:100B7000EBCE0E94EA06E8CECF70112329F08C2F2D
:100B80000E9402078D2F32CF8D2F0E942D048C2FB3
:100B90000E941207D9CED23F41F160F4D03FB9F0A4
:100BA000D13F81F0112309F443C00111B3CE8C2F42
:100BB0008F711FC0D33F01F1D43FA1F78091C902CB
:100BC00082FD24C08C2F8F71112311F312C01123C9
:100BD00041F0053008F0B8CE8C2F8F710E942407A9
:100BE000B3CE063008F0B0CEF7CF8C2F8F71111135
:100BF000CFCF0E940207A8CE112329F08C2F8F712E
:100C00000E94F606A1CE0E94F1069ECE112331F07D
:100C100063E08C2F8F710E948B0B96CE81E00E9437
:100C2000A90B023008F490CE82E00E94A90B8CCE72
:100C3000002359F0D93309F009CFEFEFF7EE23E0A5
:100C4000E150F0402040E1F7FFCE8C2F8F71A0CF14
:100C50000F931F93CF93DF93EC01688179818D818E
:100C60000E9405088C010E944F070E94C506B8012A
:100C7000CE010E943404DF91CF911F910F9108950E
:100C8000CF93DF93EC018C81882399F0CE010E94F1
:100C90003702811111C00E94EE0A882351F08D8124
:100CA000882339F08091C90282FF03C082E00E944C
:100CB000A90BDF91CF910895CE010E942806CE01A5
:100CC0000E94EB01F6CF90E080E00E94AE1990E028
:100CD00080E00E94D3190E94150B0E94840B0E9491
:100CE000C1170E94A51708950E94581A0E94630612
:100CF00008950E94050B0E947406089592959F70B6
:100D0000963091F058F4925F9F70923058F4803F83
:100D100019F030F4883E30F481E008959A5FF4CF02
:100D2000843FD1F380E00895883EB0F3813FD1F74E
:100D3000F3CFFC012481222339F0808191810E942C
:100D4000FA070E947E06089580E00895A6E0B0E0CC
:100D5000ECEAF6E00C9482242696E2E00C949E24C1
:100D6000A7E0B0E0E6EBF6E00C9482242796E2E000
:100D70000C949E2408950E94BA0608950E94BB0612
:100D80009093F7018093F601089508950E94BE069E
:100D900008952091F6013091F701822B932B0E9448
:100DA000BE0608952091F6013091F7018223932326
:100DB0000E94BE0608952091F6013091F701822726
:100DC00093270E94BE0608950E94BA0608950E94C5
:100DD000E40608950E94E7069093F5018093F401DC
:100DE000089590E080E00E94EA06089521E030E056
:100DF000A90102C0440F551F8A95E2F7CA010E945B
:100E0000EA06089521E030E002C0220F331F8A95E0
:100E1000E2F78091F4019091F501822B932B0E94CF
:100E2000EA06089521E030E002C0220F331F8A95C0
:100E3000E2F7209530958091F4019091F50182239D
:100E400093230E94EA06089521E030E002C0220FB9
:100E5000331F8A95E2F78091F4019091F501822782
:100E600093270E94EA0608952091F4013091F5013C
:100E7000822B932B0E94EA0608952091F401309171
:100E8000F501822393230E94EA0608952091F4013C
:100E90003091F501822793270E94EA06089508956C
:100EA000262F277091E001C0990F2A95EAF723E0D9
:100EB000769567952A95E1F7660F771F660F771F7E
:100EC000FA01E60FF71F50E040E0682F70E08191D3
:100ED000DF0111979B01042E02C0369527950A94D5
:100EE000E2F7217021952827292328272C934F5F8B
:100EF0005F4F4430510559F70895A82FA77023E09C
:100F0000969587952A95E1F7880F991F880F991F65
:100F1000FB01E80FF91F50E040E080E0219130E054
:100F20000A2E02C0369527950A94E2F721703327DE
:100F3000042E01C0220F0A94EAF7822B4F5F5F4F05
:100F40004430510559F70895262F9C3070F48930AC
:100F500060F4682F70E089E0989F600D711D112486
:100F60004CEB51E0822F0E9450070895292F9C30AE
:100F700068F4893058F490E06CEB71E039E0239F1D
:100F8000800D911D11240E947D07089580E0089531
:100F9000B0E0A0E0EEECF7E00C947B247C01009143
:100FA000F4011091F5018091F6019091F701082B61
:100FB000192BCFE0D0E0CC24C394D12CBC2EC60199
:100FC0000C2E02C0880F991F0A94E2F78023912308
:100FD000892B49F4219790F7B12C8B2DCDB7DEB733
:100FE000E9E00C949724B7018C2F0E94BC0E019766
:100FF00089F3F3CFCF93DF93EC010E94C807BE01C2
:101000000E94BC0EDF91CF9108951F93CF93DF9381
:10101000EB019091BB01992339F0CB010E94FA07B3
:10102000DF91CF911F910895882369F0CB010E9431
:10103000C807182F682FCE010E94A407BE01812F78
:101040000E94BC0EEDCFCB010E94B607182FF6CF41
:101050001F93CF93DF93C091F80117E08091F901BE
:101060008C1304C0DF91CF911F910895D0E01C9F95
:10107000F0011D9FF00D1124E650FE4F20813181BB
:10108000428153816481758186810E94B0062196D8
:10109000C770E4CF20913202309133024091340284
:1010A000509135026091360270913702809138027A
:1010B0000E94B0060895CF93DF9380913802807F1D
:1010C00009F04DC080913702882309F448C0E091AF
:1010D000F8015091F901C0913302D0913202609130
:1010E00034027091350247E05E17C9F18E2F90E00F
:1010F000E49FF0011124E650FE4F2481222391F158
:10110000489FF001499FF00D1124DF01A650BE4F0A
:1011100011962C9111972C1325C02C912D1322C0C0
:1011200015962C91159721111DC012962D913C9169
:10113000261B370B283C3105A8F4809138028F70AC
:10114000806180933802E050FE4F80818F70806113
:10115000808382E392E00E9440060E942808DF918B
:10116000CF910895FC013196E770BECF482F2091B2
:10117000F8019091F90157E0291302C080E0089529
:1011800030E0529FF001539FF00D1124E650FE4FC6
:101190008181681306C08081481303C08581811155
:1011A000EECF2F5F3F4F2770E7CFA4E1B0E0EBED2C
:1011B000F8E00C9478248C0186E0F801DE011F969B
:1011C00001900D928A95E1F7F8018481E58092E320
:1011D000A92E92E0B92E9091360291111FC088235A
:1011E000D1F0EE20A9F0C8010E949906F82E8823BC
:1011F00079F087E0F801D50101900D928A95E1F729
:10120000C5010E9405030E945B080E944A085FC056
:10121000C8010E944006FF24F39459C0C080D180C9
:1012200082809380F0903702209134023091350211
:10123000A401421B530BFF2009F4F9C0483C51059F
:1012400008F0A7C0882309F442C09091330280912E
:101250003802282F207F09F05CC09D1116C09091A4
:101260003202C91212C0E1104EC08F7080618093AB
:1012700038020E944A0882E392E00E944006809170
:101280003802F8018683F12C22C0E1103CC06D2D9C
:101290008C2D0E94B6086D2D8C2D0E94B608E82E6C
:1012A0008111F1CFCF86D88A8F8598890E94FA075D
:1012B000292F22952F70243078F49F702230A8F0C7
:1012C0009923B9F0F8019681907F99F4FE2C8F2D27
:1012D0006496ECE00C9494242A5F2F70223068F01E
:1012E000C8010E944006EF2CF1CF992311F088230A
:1012F00069F3805E883050F3F3CF803F38F3815F2D
:10130000833070F7E3CF8091380281608093380298
:10131000BACF9D1113C090913202C9120FC0E110D3
:101320000DC08683C8010E94400687E0F801A2E351
:10133000B2E001900D928A95E1F767CFC8010E9453
:101340009906882309F464CFEE2009F461CF8091D7
:101350003802803288F0209132023091330239878E
:1013600028879B868A86909136029C871D868E8769
:10137000CE0108960E94400687E0F801A2E3B2E0A1
:1013800001900D928A95E1F70E945B080E944A083D
:1013900042CF90913802292F207FA1F4682D9A8A9C
:1013A000898AA6017A899E2D0E94A60682E392E090
:1013B0000E94400687E0F50111928A95E9F70E94A4
:1013C0004A0861CF882309F482CF809133028D11BE
:1013D00010C080913202C8120CC0E1100AC096837E
:1013E000C8010E94400687E0F50111928A95E9F74D
:1013F0006ECFC8010E949906882309F409CFEE2018
:1014000009F406CF80913802803208F4B5CF2091DC
:101410003202309133023A8329839C828B829091ED
:1014200036029D831E828F83CE010196A3CF483C56
:101430005105B8F5882309F4EECEFE2CEE2009F410
:10144000E7CE809133028D111EC080913202C81206
:101450001AC08091380280FD0DC0982F907F51F006
:101460008683903F09F45ECF982F907F905F8F70B6
:10147000892B57CF87E0F801A2E3B2E001900D92EB
:101480008A95E1F724CFC8010E949906811174CF93
:1014900080913802816080933802C8010E94400622
:1014A00016CF682D9A8A898AA6017A899E2D0E9474
:1014B000A60687E0F50111928A95E9F7A6CEAEE07F
:1014C000B0E0E5E6FAE00C948124288739874A8762
:1014D0005B876C877D878E87CE0108960E94D50832
:1014E0008823B1F06C85662341F0288539854A85CB
:1014F0005B857D858E850E94B00617E08091F8019E
:101500009091F90189133DC02E96E3E00C949D243F
:1015100087E0FE013896DE01119601900D928A95C2
:10152000E1F78C85882349F32091F90130E0C90166
:101530000196877099274091F8014817190699F08C
:1015400097E0929FD001939FB00D1124A650BE4FFB
:10155000FE01319601900D929A95E1F78093F90181
:101560000E942808CACF0E9479061092F9011092B1
:10157000F80187E0E2E3F2E0DF011D928A95E9F7E6
:10158000BCCF819FC001112486509E4F0E94D50878
:10159000882309F4B9CFE091F8011E9FF0011124CE
:1015A000E650FE4F208131814281538164817581F3
:1015B00086810E94B0068091F80190E001968770C4
:1015C00099278093F8019ACF80914102869586955C
:1015D0008695089580914102877008959091410207
:1015E000977081E009F480E0089580914D0208959C
:1015F00090914D02892B80934D0208958095909192
:101600004D02982390934D02089510924D02089533
:1016100090914C02892B80934C0208958095909173
:101620004C02982390934C02089510924C02089516
:1016300008950E94180B089590914202292F2823A3
:1016400031F080958923809342020E94190B0895FE
:1016500008950E94280B089590914302292F282372
:10166000281729F0982B909343020E94290B089584
:1016700090914302292F282331F08095892380936C
:1016800043020E94290B089580914302882329F088
:101690001092430280E00E94290B08950F931F933C
:1016A000CF93DF930091000110910101C0914D0291
:1016B00080914C02C82B80914302882331F0C82BC3
:1016C0000E94F81981110E94440BF801C083C09157
:1016D0000001D091010148E050E069E372E0CE01E1
:1016E0000E94BD24892B59F088E0FE01A9E3B2E0F5
:1016F00001900D928A95E1F7CE010E949519DF9134
:10170000CF911F910F9108950E944E0B0895089557
:101710000E94870B08959091C90292FF11C098E032
:10172000899F90011124622B609341020E9402075D
:10173000809141028695869586950E94880B089532
:101740000E94020708951092410280E00E94880BD7
:101750000895909141028095892380934102282F1A
:10176000277069F4891759F09091C90292FF07C058
:101770008695869586950E9412070E94A30B089570
:101780009091C90292FB222720F9281769F080FB6B
:1017900092F99093C9028091C8029091C9020E9467
:1017A0000F0C82E00E94A90B08958091C90282FB70
:1017B000882780F991E089270E94C00B089581E075
:1017C0000E94C00B089580E00E94C00B08956FEF47
:1017D0007FEF90E080E00E940F25089590E080E088
:1017E0000E94DB2421E0853E9E4F09F020E0822FFD
:1017F000089582E090E00E94D324089583E090E071
:101800000E94D32490E00895682F83E090E00E9426
:10181000F124089584E090E00E94DB240895BC0147
:1018200084E090E00E940F250895AB01BC018FE099
:1018300090E00E9403250895AB01BC0183E190E094
:101840000E940325089560E070E0CB010E941C0C0B
:10185000089560E070E0CB010E94150C0E94230CFB
:101860000895A8E0B0E0E7E3FCE00C94822465EE84
:101870007EEF90E080E00E940F2560E082E090E043
:101880000E94F12481E090E09093F7018093F601AB
:101890000E94040C60E074E184E090E00E940F2557
:1018A00060E086E090E00E94F12460E087E090E054
:1018B0000E94F12440E050E0BA0188E090E00E94EC
:1018C000032560E083E290E00E94F12460E08CE078
:1018D00090E00E94F12460E08DE090E00E94F1240D
:1018E00019821A821B821C821D821E821F82188608
:1018F00048E050E067E170E0CE0101960E94E124EB
:1019000040E050E0BA018FE190E00E9403250E9480
:10191000290C2896E2E00C949E240E94310C089534
:10192000682F8EE090E00E94F1240895A6E0B0E0D8
:10193000ECE9FCE00C9480240E94821B8C018091D5
:101940004E0290914F028017910781F019821A82FE
:101950000E94821B682F49815A81792F80E090E094
:101960000E94D50210934F0200934E022696E4E0A7
:101970000C949C240E94D80F60936C0270936D02AB
:1019800080936E0290936F02609368027093690275
:1019900080936A0290936B020895089508950E94BF
:1019A000CD0C089508950E94D20C089581E0089509
:1019B00082EF9FE00E94DE130E94CE0C0E94CF0CAB
:1019C00008950E94DD110895089508950E94E40C81
:1019D0000E94E50C08950E94EE0B811102C00E9446
:1019E0008D0C0E94F90B809370020E940A0C909358
:1019F000C9028093C8020E94FE0B0E94C606809115
:101A0000F4019091F5010E94E70608950E94791B68
:101A10000E94B20F0E94E3110E9430110E94EB0C51
:101A20000E94AF020E942F150E94F5110E94D30C54
:101A30000895A6E0B0E0EFE1FDE00C9476240E946A
:101A4000D60C81110CC00E94960C0E94DD110E94E0
:101A5000E3170E94BC022696EEE00C9492240E94AA
:101A6000531120E5822E22E0922E640110E0F6014F
:101A7000E190F1906F01812F0E940E101F5F1C30CA
:101A800009F44BC0E816F90691F38091700281FDCC
:101A90000E9417100E94E10C782E10E066246394D7
:101AA000812F0E940E107C01F401A190B1904F0192
:101AB0008A159B0561F100E0CC24C394D12CAE249F
:101AC000BF24C5018C219D21892BC1F07720B1F065
:101AD00009831A830E94821B9C838B836D8221E081
:101AE000C7018C219D21892B09F420E049815A816D
:101AF0006B817C818D81922F0E94D5020F5FCC0C6F
:101B0000DD1C0930F1F6F4013297F182E0821F5FAB
:101B10001C3031F60E94BA0C98CFE816F90609F08D
:101B2000B4CF91CF1F93CF93DF930E94C10EEC01EE
:101B3000C11580E5D807F0F5C11580E4D80708F095
:101B40009CC0C03ED10520F5CD3CD10508F082C037
:101B5000C83AD10578F4C53AD10508F073C0C13050
:101B6000D10519F1209709F1C430D105F0F4D0E086
:101B7000C0E01BC0C33CD105D0F7C85AD0E0CC0FA1
:101B8000DD1FC659DE4F0990D881C02DD4640DC029
:101B9000C11580E2D80708F0D1C0C11581E0D8078F
:101BA00008F05AC0C83ED10510F7CE01DF91CF91A1
:101BB0001F910895C03682E5D80718F5C03482E534
:101BC000D80708F06BC0C03282E5D80708F05FC0C4
:101BD000C11582E5D80708F497C02C2F26952695C5
:101BE00080E2289F900111248C2F8370C1E0D0E007
:101BF00002C0CC0FDD1F8A95E2F7C22BD32BDD6824
:101C0000D4CFC03A82E5D80760F4C03882E5D8075F
:101C100008F459C0CF71D0E0DC2FCC27C46FD06A54
:101C2000C4CFC03C82E5D80708F462C0C03E82E55C
:101C3000D80708F09CCFDC2FCC27CC27DF71C06FF2
:101C4000D06AB3CFC55AD0E0C056DE4FC881D0E0CD
:101C5000D064ABCFD065A9CF8D2F0E94630F182F12
:101C6000CE0199270E94C10EC12FD0E0DC2FCC27D6
:101C7000CC27DF71C82BD92B98CFCE0199270E9492
:101C8000C10ECC27DF70C82BD92BD06A8ECFCF7175
:101C9000D0E0DC2FCC27C16FD06A87CF2C2F2695C0
:101CA0002695277080E2289F900111248C2F837045
:101CB000C1E0D0E002C0CC0FDD1F8A95E2F7C22B55
:101CC000D32BDC6872CF2C2F26952695277080E2C7
:101CD000289F900111248C2F8370C1E0D0E002C0B6
:101CE000CC0FDD1F8A95E2F7C22BD32BDA685DCFCC
:101CF0008C2F8F710E94630FC82FD0E0DC2FCC2770
:101D0000CC27DF71D06251CF8C2F8F710E94630F6F
:101D100055E0D695C7955A95E1F7CF70D0E0DC2F06
:101D2000CC27282F30E084FF05C044E0220F331F6A
:101D30004A95E1F7C22BD32BD06937CF8D2F8F7106
:101D40000E94630F182FCE0199270E94C10EC12F48
:101D5000D0E0DC2FCC27CC27DF71C82BD92BD2CFFA
:101D6000462F7C3030F4693020F4672F0E949201B6
:101D7000089590E080E008950E94B00E0E94920DB8
:101D8000089582389105B9F1B0F48133910509F4D1
:101D90007DC048F48932910509F46DC08A329105FD
:101DA00009F47BC008958533910509F45FC0893338
:101DB000910509F10895833E9105D9F138F4803EEB
:101DC000910529F1823E910579F10895863E9105AC
:101DD000D9F1873E910509F43EC0843E910541F555
:101DE0002091C90221FF24C08091C80284FD19C03E
:101DF00087EE90E008952091C802237009F05AC040
:101E00002091C90223FF14C089E290E00895209137
:101E1000C80220FD38C03091C90230FF09C024FF3C
:101E200043C090E080E008952091C80222FDF7CFE2
:101E300008952091C80222FD3AC03091C90230FDB8
:101E400039C024FFF5CFEDCF2091C80223FFF0CF9A
:101E500024FDE7CFCDCF2091C80223FD2EC03091C5
:101E6000C90231FFEECF84EE90E008952091C802C0
:101E700025FFDECFC9CF2091C80225FD21C02091CA
:101E8000C90223FFD5CF89E390E0D2CF2091C802C9
:101E900026FFCECF8AE290E008952091C80226FF67
:101EA000C7CF81E390E0089583EE90E0089582EE3D
:101EB00090E0089580EE90E0089586EE90E0089519
:101EC00085E390E008959091C80292FF10C041E030
:101ED000282F2471243009F040E031E0282F2871A8
:101EE000283009F030E0431711F02CE0822793FFEF
:101EF00010C041E0282F2471243109F040E031E086
:101F0000282F2871283109F030E0431711F02CE018
:101F100082273091C90230FF10C051E0282F217173
:101F2000213009F050E041E0282F2871283009F0D5
:101F300040E0541711F029E0822731FF10C041E042
:101F4000282F2171213109F040E031E0282F28713C
:101F5000283109F030E0431711F029E0822794FD81
:101F6000877E08951092CA021092CB021092CC0282
:101F70001092CD020895CF92DF92EF92FF926B0103
:101F80007C010E94DD1181110EC00E948E1BC61AB9
:101F9000D70AE80AF90AC092CA02D092CB02E092AC
:101FA000CC02F092CD02FF90EF90DF90CF90089599
:101FB0000F931F930E94DD11882329F00E948E1B2E
:101FC0001F910F9108950E948E1B0091CA021091DB
:101FD000CB022091CC023091CD02600F711F821F85
:101FE000931FEECF80E00895CF939C01205E324591
:101FF000C1E02032310538F4FB01C581C11103C0B5
:102000008F710E9403028C2FCF91089508950E9432
:102010000610089508950E940A100895E82FF0E030
:10202000EE0FFF1FE951FD4F8081918108950895C2
:1020300080EA8A95F1F7089500C008950E9418106B
:10204000089508950E9421100895ACE0B0E0EBE2FD
:10205000F0E10C947E240E94DD11F82E6091FF02C5
:10206000882309F446C05CE0E52E8E010F5F1F4F08
:10207000F8018E2D11928A95E9F7862F90E0880F4E
:10208000991FB80189519D4F0E9403128823C9F0FE
:102090008091CE0290E0880F991F4CE050E0B8018B
:1020A00089519D4F0E94BD2421E020937102892B0C
:1020B00091F4F12C0E940B108F2D2C96E6E00C94DD
:1020C0009A24809171028823A1F3F8011192EA9475
:1020D000E9F710927102A091CE02B0E0AA0FBB1FE7
:1020E000A951BD4F8CE0F80101900D928A95E1F75E
:1020F000E1CF70E0660F771F69517D4F8091CE026E
:1021000090E0880F991F89519D4F0E948A120E946A
:102110002210D2CFF894E82FE295EF70F0E031A1D1
:10212000282F2F7081E090E001C0880F2A95EAF7F0
:10213000982F9095932391A392A1892B82A37894B1
:1021400008950F931F93CF93DF93CCEAD1E0899149
:102150008F3F11F00E948A1081E0C23BD807B9F787
:10216000C3EAD1E00CEA11E089918F3F11F00E949F
:102170008A100C171D07C1F7DF91CF911F910F91A6
:102180000895AF92BF92DF92EF92FF920F931F9349
:10219000CF93DF938C01D62EC62FD0E0CE0184558D
:1021A0009E4F7C01FC0120812F3F09F44CC0F89424
:1021B000E22FE295EF70F0E031A12F7081E090E026
:1021C00001C0880F2A95EAF7932F982B91A392A12B
:1021D0008095892382A378940E941C10E3EAF1E0A1
:1021E00041E050E0B12CA12C21912F3FB1F1A22F61
:1021F000A295AF70B0E090968C9190E02F7002C0E5
:10220000959587952A95E2F780FD27C0CA01A82AEF
:10221000B92A440F551F81E0EC3AF80729F7F70176
:1022200080818F3F11F00E948A1061E0A114B104F7
:1022300009F460E08D2D0E941E10CC0FDD1FC00F31
:10224000D11FB982A882DF91CF911F910F91FF908A
:10225000EF90DF90BF90AF90089590E080E0D7CFEF
:10226000809102018091020196E0811190E09093AB
:10227000FF0286E0891B8093CE020E94A11088E1B4
:10228000E7EEF2E0DF01982F1D929A95E9F7EFEC67
:10229000F2E0DF011D928A95E9F786E00E94931132
:1022A0000E9407100895A8E1B0E0E9E5F1E10C947F
:1022B0007F248E010F5F1F4F88E1F80111928A95EC
:1022C000E9F7F12C6F2DC8010E94C110F394F6E0DC
:1022D000FF12F8CF48E150E0B8018FEC92E00E9485
:1022E000BD2421E0009709F420E0892B41F088E12A
:1022F000F801AFECB2E001900D928A95E1F76091A0
:10230000FF0270E0660F771F69517D4F46E08FEC4A
:1023100092E00E949411182F0E942510812B68963C
:10232000E5E00C949B240895B0E0A0E0EAE9F1E137
:102330000C947C246C017B01042FC22F222379F0A2
:1023400081E0809374020E94821B909373028093B9
:10235000720280E0CDB7DEB7E8E00C949824D0910B
:102360007402DD23B1F380917202909173020E9496
:102370009A1B059770F310E0000F111FA801B6011A
:10238000C7010E94BD24892B31F0A801B601C70105
:102390000E94CA24CD2F109274028C2FDBCFCF93D2
:1023A0000E944B24C82F811102C00E9446248C2F0A
:1023B000CF910895809178020895809177020895D1
:1023C0000E94DD1108950E94CF11809377020E9430
:1023D000E011809378020E94DA11809302010E943A
:1023E000DD1181110E94391208950E94DD118111C1
:1023F00002C00E943C12089581E0909179029A30C7
:1024000008F080E008950F931F93CF93DF93EC01C2
:102410008B01809179028A30B8F4B801CE010E9414
:102420008712C82F811122C0809179028F3FB9F4A1
:102430000E94821B90937602809375028C2FDF910D
:10244000CF911F910F91089580917502909176021E
:102450000E949A1B843F914000F7C0E0EFCF8F5F4E
:10246000809379028A3020F7C1E0E8CF1092790298
:10247000E5CF0E945D1C08950E94601C0895B0E0A5
:10248000A0E0E5E4F2E10C947D247901C82F880FE7
:10249000DD0B41155105A9F0FE0193E0EE0FFF1F82
:1024A0009A95E1F7ED5FFE4F8181928186589D4FAD
:1024B000208130E04217530708F49A01A9010E94D5
:1024C000CA24CE010E94491DD82E8823D1F00115BF
:1024D0001105B9F083E0CC0FDD1F8A95E1F7FE010D
:1024E000ED5FFE4F438150E00417150708F4A80183
:1024F000CD5FDE4F6C817D8166587D4FC7010E94A4
:10250000CA248D2DCDB7DEB7E7E00C9499240E9444
:10251000791308950E9490130895A4E0B0E0E3E9D0
:10252000F2E10C94802460919F027091A00280914E
:10253000A1029091A2020E94A91B11E064367105CC
:102540008105910518F10E94D80F6E5F7F4F8F4F64
:102550009F4F69837A838B839C8310E000E030E097
:1025600020E044E050E0BE016F5F7F4F82E00E94B8
:102570003F12182F882351F00E948E1B60939F02F8
:102580007093A0028093A1029093A202812F2496BF
:10259000E4E00C949C24B0E0A0E0E1EDF2E10C94C6
:1025A0007A247C015B016A010E94FC1101E010E0C9
:1025B000882311F00AE010E0C1E0D0E0B501C701C6
:1025C000F6010995811104C021960C171D072CF402
:1025D000CDB7DEB7EAE00C949624CC9F9001CD9F56
:1025E000300D300D112490E080E045E34A95F1F77D
:1025F0000000019682179307C1F7E0CFADE0B0E08D
:10260000E4E0F3E10C947A247B01C090B201D09015
:10261000B30101E010E09E01235F3F4F50E040E036
:1026200070E060E080E00E943F12182F882309F4D8
:1026300048C056018FEFA81AB80A60919B027091AA
:102640009C0280919D0290919E020E94A91B64367B
:1026500071058105910568F10CE010E09E012F5F86
:102660003F4F50E040E070E060E081E00E943F12A8
:10267000D82E6CE070E0C5010E94301511E09D85F8
:10268000981310E01D2141F10E948E1B60939B0264
:1026900070939C0280939D0290939E028CE0FE01B9
:1026A0003196AFE8B2E001900D928A95E1F711E022
:1026B00013C06CE070E0C5010E9430159D85891340
:1026C000CBCF8CE0F6013196DE01119601900D9290
:1026D0008A95E1F71111E2CF8CE0EFE8F2E0D70143
:1026E00001900D928A95E1F7812F2D96EAE00C94E6
:1026F00096240F931F93CF93DF93EC018B014EEF42
:1027000052E10E94CB12882331F04DE852E1B8012A
:10271000CE010E94CB12DF91CF911F910F910895AE
:102720000F931F93CF93DF93C091B201D091B30168
:10273000CE0101962CE0FB01DC0101900D922A955F
:10274000E1F76CE070E00E94301588836D857E852E
:102750008F85988900918B0210918C0220918D02B7
:1027600030918E02601771078207930751F06093D2
:102770008B0270938C0280938D0290938E020E9444
:10278000BB0FDF91CF911F910F9108950E94190DFA
:1027900008950E941B1B0E94021F0E94D80C0E94D9
:1027A0001C1F0E94060D0E94291F0E942E1F0E94BE
:1027B000C6130E94481F0E94E60CF7CF9093B50104
:1027C0008093B40108958B3109F465C040F58B30D6
:1027D00071F078F4863009F447C020F4853059F15F
:1027E00080E00895873009F448C08830C9F781E057
:1027F0000895803109F45DC068F48E3089F79091B6
:102800007002892F8B7F92FF84608093700282FD1B
:102810004CC0EDCF863159F3893149F3E1CF8A328B
:1028200001F160F48732B1F020F48E31C8F28D519D
:102830004CC08932A9F60E942B02D9CF833440F4D0
:102840008A3308F041C0853329F0883381F2C8CF3C
:10285000833431F681E090E00E94C6060E9479063A
:10286000C6CF0E948D0CC3CF80917002807F809371
:10287000700281E08093A602089590917002892FE2
:102880008E7F90FF81608093700280FDB0CF817F4A
:1028900080937002ACCF90917002892F8D7F91FF51
:1028A00082608093700281FFA2CF8091700281606C
:1028B000EFCF90917002892F877F93FF886080937C
:1028C000700283FDF2CF93CF895321E030E0A9015C
:1028D00002C0440F551F8A95E2F7CA01BDCF80E0C0
:1028E00008950E946F140895CF93C82F8091A60277
:1028F0008130B9F0882331F08230A1F11092A60224
:1029000080E00DC00E94F50A8232D1F78C2F0E9420
:102910006F1481111BC08C2F0E94E3138170CF9123
:1029200008950E94F50A823289F38C2F0E94711457
:1029300081110AC0C43199F060F4CB3029F0C03164
:1029400069F782E08093A60281E0E8CF81E090E021
:10295000E5CFC93221F0C833B9F380E0DFCF109260
:10296000A602FBCFC93209F440C0F0F4C431E9F14A
:10297000A8F481E0C73099F68093220184E1809326
:1029800021018AE0809320018EE180931F0188E07D
:1029900080931C0188E280931B0104C082EE8C0F9F
:1029A0008A3070F181E0BBCFC03509F450C0B8F473
:1029B0008AE0CF34B9F7E091A302F091A4023097F6
:1029C00089F32081082E000C990B820F911D8F3FF7
:1029D000910509F00CF43FC08FEF8083E3CFC13540
:1029E000C1F181E0C23539F39ACF8091A5028823E5
:1029F000C9F21092A5021092A4021092A302D2CFA3
:102A0000CD51C093A502C330C9F048F4C13099F04C
:102A100081E291E0C23051F01092A502C3CFC530DF
:102A200099F078F08BE191E0C630B1F79093A40271
:102A30008093A302B7CF82E291E0F8CF80E291E0E9
:102A4000F5CF8FE191E0F2CF8CE191E0EFCF86EF0F
:102A5000B2CF8FEFB0CF97FFC0CF1082A3CF089532
:102A6000FC01680F791F8FEF91E3E617F70709F470
:102A700008952191822728E030E087FF06C0880F63
:102A8000892721503109C9F7F0CF880FFACFCF93AA
:102A9000DF93EB0186319C4711F50E94F50A9D8179
:102AA000992399F08A7A91E009F490E09093A70233
:102AB000811109C089E20E94481A0E94840B80E0BB
:102AC000DF91CF91089585E3F6CF8091A702811120
:102AD00004C089E20E94501AF0CF85E3FBCF81E069
:102AE000EFCFCF93DF93EC01FB018581882309F4BD
:102AF000D2C09E0130572332310508F0B2C00E9487
:102B00000A0C9093C9028093C802FE01E150F0477D
:102B1000E232F10520F4ED5CFA4D0C946C248091C6
:102B2000C80281608093C80293C08091C902886006
:102B30008093C9028DC08091C8028260F3CF8091DA
:102B4000C8028460EFCF8091C8028860EBCF80918B
:102B5000C9028160EDCF8091C9028260E9CF809186
:102B6000C8028061DFCF8091C8028062DBCF809194
:102B7000C8028064D7CF0E9479068091C80280681D
:102B8000D1CF8091C8028C60CDCF8091C902836083
:102B9000CFCF8091C8028E7FC5CF8091C902877F39
:102BA000C7CF8091C8028D7FBDCF8091C8028B7F37
:102BB000B9CF8091C802877FB5CF8091C9028E7F3F
:102BC000B7CF8091C9028D7FB3CF8091C8028F7E2D
:102BD000A9CF8091C8028F7DA5CF8091C8028F7B3D
:102BE000A1CF0E9479068091C8028F779BCF8091F8
:102BF000C802837F97CF8091C9028C7F99CF809143
:102C0000C80282FB992790F921E0922790FB82F974
:102C100090FB83F987CF8091C902982F909591708E
:102C20008E7F892B90FB81F983CF9091C802892FE9
:102C30008F7B96FF806476CF0E9479069091C802C0
:102C4000892F97FB87F980586DCF81E00E94900C07
:102C50008091C8029091C9020E940F0C0E947906CF
:102C600080E0DF91CF91089580E0F0CF9091C8028D
:102C7000892F8F7E94FF806155CF9091C802892F54
:102C80008E7F90FF81604ECF9091C902892F877F00
:102C900093FF88604DCF81E0E4CF282F35EB2303ED
:102CA000C001112497FF04C080589109892F08950D
:102CB00080589F4FFBCF8091AE0280FF0DC0609186
:102CC000200170E0660F771F6038710570F561159F
:102CD000710569F1862F089581FF07C06091200179
:102CE00084E0689FB0011124EFCF6091200182FD44
:102CF0000AC08091AD028823A9F020911F01609144
:102D00002001821710F088E0ECCF869FC0011124CB
:102D100033E0880F991F3A95E1F7622F70E00E9427
:102D20005824D2CF68E070E0D5CF8FE7089581E0D6
:102D300008958091AE0280FF0CC060911C0170E08C
:102D400075956795759567956115710549F1862F9C
:102D5000089581FF06C060911C0170E0759567952C
:102D6000F3CF60911C0182FD0BC09091AC029923BE
:102D7000A1F060911B0180911C01961738F0682F1B
:102D800070E06038710500F38FE70895899FC001F6
:102D9000112470E00E945824F4CF61E070E0D7CF96
:102DA00081E008958D3C31F40E945B1681958093FB
:102DB000B20208958E3C19F40E945B16F8CF8F3C46
:102DC00031F40E945B1681958093B1020895803D95
:102DD00019F40E945B16F8CF893D29F40E949916D8
:102DE0008093B30208958A3D21F40E94991681953B
:102DF000F7CF8B3D31F40E94991681958093B402F0
:102E000008958C3D19F40E949916F8CF9FE2980F0F
:102E1000983070F4815D990B21E030E001C0220F01
:102E20008A95EAF78091B002822B8093B0020895D0
:102E30008D3D31F48091AE0281608093AE020895A1
:102E40008E3D21F48091AE028260F7CF8F3DB9F7BD
:102E50008091AE028460F1CF4091B1028D3C59F473
:102E60008091B20287FF0DC01092B20241110BC0D7
:102E70001092AD0208C08E3C81F48091B202181607
:102E80009CF3442381F08091B3029091B402892B8A
:102E900009F05AC01092AC0208958F3C49F447FFE4
:102EA000F0CF1092B1028091B2028111ECCFE0CF4D
:102EB000803D19F41416ACF3E4CF9091B302893D30
:102EC00029F41916F4F61092B302DBCF8A3D19F4F7
:102ED00097FFD7CFF8CF9091B4028B3D29F497FF9D
:102EE000D0CF1092B402CDCF8C3D19F41916CCF38B
:102EF000C8CF9FE2980F983090F4815D990B21E044
:102F000030E0B90102C0660F771F8A95E2F7CB0166
:102F100080959091B00289238093B002B2CF8D3D0D
:102F200031F48091AE028E7F8093AE02AACF8E3DA7
:102F300021F48091AE028D7FF7CF8F3D09F0A1CFB4
:102F40008091AE028B7FF0CF08950E94821B9C017E
:102F50009091B1028091B202982B21F03093AB0294
:102F60002093AA029091B3028091B402982B21F091
:102F70003093A9022093A8028FEA92E00E94A01940
:102F8000089586E0EFEAF2E0DF011D928A95E9F705
:102F90001092AD021092AC021092AE020895FC01A4
:102FA000828181110EC0838181110BC084818111C6
:102FB00008C091E08581811101C090E0892F817066
:102FC000089581E0FCCFA6E0B0E0E9EEF7E10C94D3
:102FD000812486E0EFEAF2E0DE01119601900D9285
:102FE0008A95E1F71092B1021092B2021092B302E8
:102FF0001092B4028B819C81892B89F08091AA0266
:103000009091AB020E949A1BAC019091AD02992362
:10301000C9F1809121018417150608F440C08D8103
:103020009E81892B91F08091A8029091A9020E9423
:103030009A1BAC019091AC02992309F46AC080916B
:103040001D018417150608F472C0BE016F5F7F4F23
:103050008FEA92E00E94631A811105C08FEA92E024
:103060000E94CF1781110E94A51786E0FE013196BC
:10307000AFEAB2E001900D928A95E1F72696E3E07F
:103080000C949D24209122018AE0289F9001112414
:103090002417350720F69F5F9093AD0202C09F3F33
:1030A000D1F71B81112359F00E945B169FEF111677
:1030B0000CF491E0899F802D11248093B1021C8132
:1030C000112359F00E945B169FEF11160CF491E04A
:1030D000899F802D11248093B2028091B1028823B0
:1030E00009F49DCF1091B202112309F498CF0E94E8
:1030F0004D16882351F08093B102812F0E944D1606
:10310000882329F08093B2028ACF81E0F4CF81E056
:10311000F9CF20911E018AE0289F900111242417E5
:10312000350708F092CF9F5F9093AC0202C09F3F9B
:10313000D1F71D81112359F00E9499169FEF1116A6
:103140000CF491E0899F802D11248093B3021E819D
:10315000112359F00E9499169FEF11160CF491E07B
:10316000899F802D11248093B4028091B30288231B
:1031700009F46BCF1091B402112309F466CF0E94B9
:103180004D16882351F08093B302812F0E944D1673
:10319000882329F08093B40258CF81E0F4CF81E0F6
:1031A000F9CF0F931F93CF93DF93C42FD22FFC013E
:1031B00085818823C9F04093B7020E94821B9093B7
:1031C000B6028093B50280E28C0F883040F4C7705D
:1031D00081E001C0880FCA95EAF70E942604DF91BA
:1031E000CF911F910F9108951091B702141332C01F
:1031F0008091B5029091B6020E949A1B883C91057D
:1032000048F5C0E2CD0F1D17B9F080E2810F88307C
:1032100040F4177081E001C0880F1A95EAF70E9408
:103220002D04C83048F481E09D2F977001C0880FAD
:103230009A95EAF70E942604802F0E941D04C83048
:1032400070F6D77081E001C0880FDA95EAF70E9426
:103250002D04C5CF80E28C0F883008F6C77081E05E
:1032600001C0880FCA95EAF7F2CF0F93DB018851AE
:103270009C4787309105A0F5FC01EB5AFA4D0C9460
:103280006C2406E221EE41EE6AE17CE7CD010E946A
:10329000D11880E00F91089507E225EE45EE6BE12D
:1032A0007CE7F4CF06E221EE40EE68E17CE7EECF6A
:1032B00007E225EE44EE69E17CE7E8CF06E221EE85
:1032C00042EE6CE17CE7E2CF07E225EE46EE6DE1EF
:1032D0007CE7DCCF08E221E045EE6EE17CE7D6CF6B
:1032E00015968C91882319F01092B702D3CF81E004
:1032F000D1CF9093BE028093BD0208950E94DD114C
:10330000811103C08091B8020895E091BD02F0914F
:10331000BE02309729F00190F081E02D09950895C3
:1033200080E008950E947E190895E091BD02F09119
:10333000BE02309721F00280F381E02D09950895B7
:10334000E091BD02F091BE02309739F022E0DC013D
:103350002C930680F781E02D09950895A3E0B0E055
:10336000E4EBF9E10C9482242091BB023091BC0281
:1033700028173907A1F09093BC028093BB02E0911B
:10338000BD02F091BE02309751F023E029839B8368
:103390008A830084F185E02DCE010196099523965C
:1033A000E2E00C949E24A3E0B0E0E9EDF9E10C9496
:1033B00082242091B9023091BA0228173907A1F06E
:1033C0009093BA028093B902E091BD02F091BE02DF
:1033D000309751F024E029839B838A830084F18510
:1033E000E02DCE01019609952396E2E00C949E24EF
:1033F00040910001509101019A012E5F3F4F485FBB
:103400005F4F80E02417350709F40895F901919181
:103410009F019923B9F38F5FF5CF882371F0209135
:10342000000130910101F9013296285F3F4F9191DF
:10343000981729F0E217F307D1F780E0089581E0AB
:1034400008959C01FC0132969FEF80E04191461760
:1034500051F09F3F19F4411101C0982F8F5F8630C2
:10346000A9F79F3F09F40895290F311D97FD3A955B
:10347000F90162830895FC01329608962191261382
:1034800003C0DF0111971C92E817F907B9F70895F7
:10349000682F80910001909101010E94211A0895E6
:1034A000682F80910001909101010E943B1A0895BC
:1034B000E0910001F0910101329686E0DF011D925A
:1034C0008A95E9F70895DC01FB0111969C9111970B
:1034D0008181981322C012968C911297882319F03B
:1034E000928189131AC013968C911397882319F02F
:1034F0009381891312C015968C911597882319F022
:10350000958189130AC014969C91992321F081E03A
:103510002481291303C080E001C081E081700895F7
:1035200008950E94901A089581110EC081E0809341
:1035300026016091230170912401809125019091D1
:1035400026010E94911A089582E0F1CF83E08093D2
:1035500026016091230170912401809125019091B1
:1035600026010E94911A08950E94941A089581E0FC
:10357000809326016091230170912401809125019F
:10358000909126010E94911A08950E94B71A0895F9
:1035900091E0811101C090E0909325016091230199
:1035A0007091240180912501909126010E94911A29
:1035B000089580912501089580932401609123014D
:1035C0007091240180912501909126010E94911A09
:1035D000089580912401089580932301609123012F
:1035E0007091240180912501909126010E94911AE9
:1035F0000895809123010895089508950E94FD1A69
:103600000895089508950E94FC1A0895CF930E948A
:10361000011B0E9453110E94021BC0E08C2F0E94CC
:103620000E10892B31F4CF5FCC30C1F780E0CF9101
:10363000089581E0FCCF85B7806885BF85B7806835
:1036400085BF08951F921FB61F9211248F939F93D9
:10365000AF93BF938091BF02811113C0809100038B
:1036600090910103A0910203B09103034196A11D23
:10367000B11D8093000390930103A0930203B093C4
:103680000303BF91AF919F918F911F901FBE1F9019
:10369000189580910803843031F10E9493021092B2
:1036A000BF0288E190E020E40FB6F894A8958093DB
:1036B00060000FBE2093600083B7817F846083BF6A
:1036C00083B7816083BF7894889583B78E7F83BFEB
:1036D0000FB6F894A895809160008861809360008F
:1036E000109260000FBE08950E9479060E94980211
:1036F000089582E084BD93E095BD9AEF97BD8093D5
:103700006E0008952FB7F894809100039091010303
:10371000A0910203B09103032FBF08952FB7F8942F
:103720006091000370910103809102039091030363
:103730002FBF08959C014FB7F8948091000390919A
:103740000103A0910203B09103034FBF821B930BAF
:103750000895CF92DF92EF92FF922FB7F894C09026
:103760000003D0900103E0900203F09003032FBF09
:10377000A7019601261B370B480B590BCA01B9014B
:10378000FF90EF90DF90CF90089578941F921FB62E
:103790001F9211248F939F93AF93BF938091000347
:1037A00090910103A0910203B09103030196A11D22
:1037B000B11D8093000390930103A0930203B09383
:1037C0000303BF91AF919F918F911F901FBE1F90D8
:1037D000189587E797E7909301088093000888E1A0
:1037E0009AE00FB6F894A895809360000FBE90936E
:1037F0006000FFCF88E19AE00FB6F894A895809317
:1038000060000FBE90936000FFCF8EE1489B02C026
:103810008150E1F7489BFECF0895589880E28A9541
:10382000F1F7589A0895FC013BE03A95F1F798E0DA
:1038300020E080E031E040E14A95F1F7880F489BB5
:1038400002C08160232742E04A95F1F7000040E181
:103850004A95F1F7915079F790E19A95F1F799B17E
:1038600032E03A95F1F7000040E14A95F1F79170A6
:1038700092272081920F90830895A1E0B0E0E3E4C5
:10388000FCE10C947E2419828C017C01E60EF11C73
:103890000E151F0541F481E09981911180E0219678
:1038A000E6E00C949A240E94051CCE0101960E9429
:1038B000131CF80181938F01EBCF509A589A089509
:1038C0005098589AE89AE9E6F0E080818C7F8083EE
:1038D00008956150770B91E001C0990F6A95EAF75E
:1038E00020E031E0911108C0222391F0589A80E243
:1038F0008A95F1F758980895492F482339F0589A36
:10390000232740E24A95F1F79695ECCF5898F9CFE6
:103910005898EDCFFF920F931F93CF93DF93EC0155
:103920008C01060F111DC017D10729F4CDB7DEB7E2
:10393000E5E00C949B24F9900E940D1C68E08F2D0B
:103940000E94691CF0CF1F920F920FB60F921124A4
:103950000F931F932F933F934F935F936F937F9397
:103960008F939F93AF93BF93EF93FF93CF93DF9387
:103970000F92CDB7DEB719820E94051CCE010196C9
:103980000E94131C082F069506950695282F229550
:103990002570902F9570290F922F9370269526955C
:1039A000920F982797708981982B09F05CC004309A
:1039B00008F059C080E18A95F1F7589A509A82E050
:1039C0008A95F1F700C0589888E0089F800111247B
:1039D000D801AD5FBE4F1696ED91FC9117973097C9
:1039E000A9F06091B2017091B30114962D913C91B0
:1039F0001597260F371F11968D919C911297680F7E
:103A0000791F13964C9113978C910995F801ED5FEE
:103A1000FE4F6381662351F02091B2013091B301D2
:103A200084819581820F931F0E948A1C0E940D1C25
:103A300080E18A95F1F758985098589A80E18A95D4
:103A4000F1F7F801ED5FFE4F6081662351F02091A0
:103A5000B2013091B30181819281820F931F0E9444
:103A60003D1C0E94051C0F90DF91CF91FF91EF91BB
:103A7000BF91AF919F918F917F916F915F914F9186
:103A80003F912F911F910F910F900FBE0F901F909C
:103A900018950F931F93CF93DF93EC0104970CF0CD
:103AA0004CC0F894509A589885E08A95F1F7000038
:103AB0009C2F969595708C2F8570980F892F837009
:103AC0009695969523E0CC0FDD1F2A95E1F7980F88
:103AD0008E01092B0E940D1C00C068E0802F0E94FF
:103AE000691C80E18A95F1F75098589A489B1EC04E
:103AF00087E090E048991CC0FE01ED5FFE4F6381B6
:103B00006623F9F02091B2013091B301848195814F
:103B1000820F931F0E943D1C811113C0509A589A26
:103B20007894DF91CF911F910F91089500C0DECF5F
:103B3000019729F4509A589A789480E0F2CF00C007
:103B4000D9CF0E94051C80E28A95F1F75898509AC7
:103B500080E18A95F1F7CD5FDE4F6881662351F0F1
:103B60002091B2013091B30189819A81820F931F14
:103B70000E948A1C0E940D1C789481E0D2CF089587
:103B80009B01BA01909108039430E9F48F708093FF
:103B9000E9009FEF8091E800915085FD06C085ED1A
:103BA0008A95F1F700009111F5CF8091E80085FF2B
:103BB0000AC050E040E0C9010E94BF1F8091E800A8
:103BC0008E778093E800089543E050E0BC0182E0E6
:103BD0000E94C01D089546E050E0BC0182E00E94B2
:103BE000C01D0895CF93DF93EC010E94D91A48E0DD
:103BF00050E0BE0181E00E94C01D88E0FE01A0EC03
:103C0000B2E001900D928A95E1F7DF91CF9108958E
:103C100080910703811109C00E944F210E94AC21AD
:103C20008091E20084608093E2000895109207037F
:103C300008950E94B71A81E00E94C81A0895609101
:103C4000040381E0611101C080E00E94A61A08957A
:103C50009091080381E0943009F080E060910403C2
:103C60000E94B41A089542E061EC81E00E94CB20EA
:103C700042E261EC82E00E94CB209091080381E057
:103C8000943009F080E0609104030E94941A089532
:103C900080910A03833009F461C030F48130D1F19E
:103CA000823009F49EC008958A3009F48AC08B30AE
:103CB00009F46FC0893009F050C080910903813246
:103CC00009F04BC080910D0390910E03029708F00C
:103CD00044C08091E800877F8093E8008091E800ED
:103CE00082FF37C09091F3008091F200029731F487
:103CF0008091F100813011F0863021F48091F10043
:103D00000E94DC1A8091E8008B778093E8000E9483
:103D1000FF2023C080910903813AF9F48091E800E3
:103D2000877F8093E80080910D0390910E03892B8B
:103D300061F468E080EC92E070E00E940E208091D7
:103D4000E8008B778093E800089560E090E080E0E1
:103D5000F3CF809108038111C1CF089580910903A9
:103D6000813AD9F780910D0390910E03892BA9F721
:103D70008091E800877F8093E8008091E80080FFD1
:103D8000FCCF0E94D91A8093F1008091E8008E77D1
:103D9000BCCF80910903813201F780910D0390918E
:103DA0000E03892BD1F68091E800877F8093E8008D
:103DB0000E94FF2080910B030E94C81A0E9479067E
:103DC000089580910903813241F68091E800877F50
:103DD0008093E8000E94FF2080910C030E94EC1A5F
:103DE000089580910903813A09F0B7CF8091E800E6
:103DF000877F8093E8008091E80080FFFCCF0E94DD
:103E0000F91AC1CF84B7877F84BF0FB6F894A895FD
:103E100080916000886180936000109260000FBE06
:103E200080E890E00FB6F894809361009093610071
:103E30000FBE0E94C51A08950E944F210E94AC2116
:103E4000E2EEF0E080818460808378940E942B24ED
:103E5000089587E291E00E947919089580910803FE
:103E6000853031F480910803853019F00E94741B6D
:103E700008950E94491B0E94061B882399F3809194
:103E80000603882379F30E94A91F0E947906EACFCE
:103E900008959A0140910F03509110030E94511F01
:103EA0000895492F55274330510519F168F44130E1
:103EB000510509F444C04230510509F445C090E071
:103EC00080E050E040E025C04132510549F14232E6
:103ED0005105A9F784E490E044E752E061157105CB
:103EE000C1F08BE790E049EF51E06130710589F056
:103EF000E6CF99278130910581F0009729F002974C
:103F0000F1F6E4E8F1E002C0E8EAF1E0849190E043
:103F1000AF01F901518340830895E8E9F1E0F6CF5C
:103F200089E090E04EEB51E06115710591F389E075
:103F300090E047ED51E06130710559F3C0CF82E167
:103F400090E047EE51E0E5CF8BE390E04CEA51E0A2
:103F5000E0CF80E189BD82E189BD09B400FEFDCFDB
:103F60008091D8008F7D8093D8008091E00082609E
:103F70008093E0008091E00081FDFCCF0895AF9236
:103F8000BF92CF92DF92FF920F931F93CF93DF9355
:103F90006C01EB018A010E941E21F82E811123C0C1
:103FA0000115110539F0F80180819181C81BD90BE9
:103FB000C80ED91EB12CA12C2097A9F08091E80041
:103FC00085FD22C08091E8008E778093E80001157E
:103FD0001105A1F0F80180819181A80EB91EB1826E
:103FE000A08285E0F82E8F2DDF91CF911F910F9148
:103FF000FF90DF90CF90BF90AF9008950E941E2158
:104000008823D1F2F82EEFCFF60181916F018093D2
:10401000F1002197FFEFAF1ABF0ACECFFC018091CC
:104020000F039091100386179707A0F06115710593
:1040300029F49091E8009E779093E80090E0611554
:10404000710551F4911108C08091E80082FF34C0DD
:1040500080E00895BC01F2CF809108038823C1F16C
:104060008530C1F18091E80083FD30C08091E80087
:1040700082FDEACF8091E80080FFE1CF8091F300DC
:104080002091F200382F6115710519F028303105A3
:1040900058F091E02830310509F090E02091E800D7
:1040A0002E772093E800CBCF81918093F10061506F
:1040B00071092F5F3F4FE7CF80910803882341F0BC
:1040C000853041F08091E80083FFBECF81E0089504
:1040D00082E0089583E00895FC0180910F039091A0
:1040E000100386179707A0F06115710529F48091D8
:1040F000E8008E778093E80090E06115710551F437
:10410000911108C08091E80082FF35C080E00895D9
:10411000BC01F2CF809108038823C9F18530C9F131
:104120008091E80083FD31C08091E80082FDEACFF4
:104130008091E80080FFE1CF8091F3002091F200B0
:10414000382F6115710519F02830310558F091E0CC
:104150002830310509F090E08091E8008E77809357
:10416000E800CBCF84918093F100319661507109C2
:104170002F5F3F4FE6CF80910803882341F08530C1
:1041800041F08091E80083FFBDCF81E0089582E097
:10419000089583E00895982F973028F08F708093CA
:1041A000E90081E008959093E900242F762F50E0F4
:1041B000981731F07091EC002091ED005091F000D3
:1041C00021FD02C09F5FE8CF3091EB003E7F30932E
:1041D000EB003091ED003D7F3093ED003091EB002E
:1041E00031603093EB007093EC002093ED0050931E
:1041F000F0002091EE0027FDE5CF80E0089580914A
:10420000090387FF13C08091E80082FF06C08091F8
:10421000E8008B778093E80004C080910803811147
:10422000F2CF0895809108038823D9F38091E800A4
:1042300080FFF8CF8091E8008E77ECCF2091E400EA
:104240003091E50095E6A9012091EC00822F817064
:1042500020FF06C08091E80080FF06C080E008953E
:104260002091E80022FD1AC080910803882389F07C
:10427000853089F08091EB0085FD0FC02091E4002E
:104280003091E50042175307F9F29150E1F684E0CE
:10429000089582E0089583E0089581E008950E94E2
:1042A000BE210E94C621E0EEF0E080818160808323
:1042B000E8EDF0E080818F77808319BCA7EDB0E056
:1042C0008C918E7F8C9380818F7E808310920703E8
:1042D00008950F931F93CF93DF930E94BE210E94F6
:1042E000C621C8EDD0E088818F7788838881806877
:1042F000888388818F7D888319BC1092080310926F
:104300000403109206031092050300EE10E0F8017A
:1043100080818B7F808388818160888342E060E038
:1043200080E00E94CB20E1EEF0E080818E7F8083F0
:10433000E2EEF0E08081816080838081886080830C
:10434000F80180818E7F8083888180618883DF91FE
:10435000CF911F910F910895E8EDF0E080818F7E5D
:104360008083E7EDF0E080818160808384E082BF1C
:1043700081E0809307030E9469210895E8EDF0E051
:1043800080818E7F80831092E20008951092DA007F
:104390001092E10008951F920F920FB60F92112410
:1043A0002F933F934F935F936F937F938F939F933D
:1043B000AF93BF93EF93FF938091E10082FF0BC017
:1043C0008091E20082FF07C08091E1008B7F8093A3
:1043D000E1000E942A248091DA0080FF19C08091B8
:1043E000D80080FF15C08091DA008E7F8093DA00BC
:1043F0008091D90080FF96C080E189BD82E189BDAE
:1044000009B400FEFDCF81E0809308030E94081EDE
:104410008091E10080FF19C08091E20080FF15C00B
:104420008091E2008E7F8093E2008091E2008061C3
:104430008093E2008091D80080628093D80019BCFC
:1044400085E0809308030E941F1E8091E10084FF95
:104450002BC08091E20084FF27C080E189BD82E10A
:1044600089BD89B5982F917080FFFBCF8091D800CE
:104470008F7D8093D8008091E1008F7E8093E10052
:104480008091E2008F7E8093E2008091E200816063
:104490008093E20080910403882309F449C084E0FA
:1044A000809308030E94281E8091E10083FF29C0A9
:1044B0008091E20083FF25C08091E100877F809397
:1044C000E10082E080930803109204038091E100F0
:1044D0008E7F8093E1008091E2008E7F8093E200E6
:1044E0008091E20080618093E20042E060E080E041
:1044F0000E94CB208091F00088608093F0000E94A1
:10450000191EFF91EF91BF91AF919F918F917F9174
:104510006F915F914F913F912F910F900FBE0F9030
:104520001F90189519BC109208030E94161E70CF98
:104530008091E30087FD93E090930803B3CF1F922F
:104540000F920FB60F9211242F933F934F935F93C7
:104550006F937F938F939F93AF93BF93CF93DF938B
:10456000EF93FF93D091E900DF708091EC00C82FAA
:10457000C17080FDC0E81092E9008091F000877F53
:104580008093F00078940E94E3221092E9008091D9
:10459000F00088608093F000CD2BCF70C093E900CD
:1045A000FF91EF91DF91CF91BF91AF919F918F914B
:1045B0007F916F915F914F913F912F910F900FBE1F
:1045C0000F901F901895AAE2B0E0E9EEF2E20C9489
:1045D000812489E093E02091F100FC012193CF0137
:1045E000F3E081319F07B9F70E94481E8091E800EF
:1045F00083FF1EC18091090390910A039A3008F04D
:1046000017C1E92FF0E0E45AFA4D0C946C2480387D
:1046100099F0823809F00CC180910D038F708730BA
:1046200008F006C18093E9008091EB0085FB8827A4
:1046300080F91092E90006C080910503909106036D
:10464000911182609091E800977F9093E8008093A9
:10465000F1001092F1008091E8008E77E5C0882388
:1046600009F4D3C0823009F0E3C080910B038111BB
:10467000D6C080910D038F702FEF280F263008F0E1
:10468000D7C08093E9002091EB0020FFC8C0933091
:1046900031F48091EB0080628093EB00C0C0909178
:1046A000EB0090619093EB0021E030E001C0220F1D
:1046B0008A95EAF72093EA001092EA008091EB00D5
:1046C0008860EACF8111B4C010910B031F778091ED
:1046D000E3008078812B8093E3008091E800877F5E
:1046E0008093E8000E94FF208091E80080FFFCCFCB
:1046F0008091E30080688093E30082E0111183E001
:104700008093080395C08058823008F091C0809152
:104710000B0390910C038C3D23E09207A1F583E0FD
:104720008A838AE289834FB7F894DE01139620E0EA
:104730003EE051E2E32FF0E050935700E49120FF78
:1047400003C0E295EF703F5FEF708E2F90E0EA308C
:10475000C0F0C7968D939D932F5F243159F74FBFBB
:104760008091E800877F8093E8006AE270E0CE01E4
:1047700001960E940E208091E8008B778093E800DC
:1047800057C0C096E7CF60910D0370910E03AE0144
:104790004F5F5F4F0E94491FBC01892B09F448C03D
:1047A0009091E800977F9093E80089819A810E9418
:1047B0006C20E1CF8038E1F58091E800877F80931D
:1047C000E800809104038093F10045CF811130C04F
:1047D00090910B03923060F58091E800877F809381
:1047E000E800909304030E94FF2080910403882333
:1047F00011F084E005C08091E30087FDFACF81E0ED
:10480000809308030E94331E13C080910B038130F4
:1048100079F481E0933009F080E0809306031092F0
:10482000E9008091E800877F8093E8000E94FF20E4
:104830008091E80083FF0AC08091E800877F809321
:10484000E8008091EB0080628093EB00AA96E3E0A1
:104850000C949D240895CF93809108038823A1F0A0
:10486000C091E900CF709091EC00892F817090FD8C
:1048700080E8C82B1092E9008091E80083FD0E9437
:10488000E322CF70C093E900CF9108950E944F2199
:10489000109208030895E8EDF0E080818061808344
:1048A0008AE18A95F1F700C08091D900817008955E
:1048B00097FB072E16F4009407D077FD09D00E94CD
:1048C000A92407FC05D03EF4909581959F4F08954B
:1048D000709561957F4F0895EE0FFF1F0590F4913D
:1048E000E02D09942F923F924F925F926F927F92A8
:1048F0008F929F92AF92BF92CF92DF92EF92FF92F0
:104900000F931F93CF93DF93CDB7DEB7CA1BDB0B9B
:104910000FB6F894DEBF0FBECDBF09942A88398840
:1049200048885F846E847D848C849B84AA84B98447
:10493000C884DF80EE80FD800C811B81AA81B98153
:10494000CE0FD11D0FB6F894DEBF0FBECDBFED0167
:104950000895AA1BBB1B51E107C0AA1FBB1FA617C6
:10496000B70710F0A61BB70B881F991F5A95A9F718
:1049700080959095BC01CD010895FB01DC0104C038
:104980008D910190801921F441505040C8F7881B47
:10499000990B0895FB01DC0102C001900D9241507A
:1049A0005040D8F70895F999FECF92BD81BDF89A8D
:1049B000992780B50895A8E1B0E042E050E00C945A
:1049C0001725DC01A40FB51F4150504048F0CB0122
:1049D000840F951F2E910E94F22441505040D0F731
:1049E0000895262FF999FECF92BD81BDF89A0197BF
:1049F00000B4021639F01FBA20BD0FB6F894FA9A27
:104A0000F99A0FBE08950396272F0E94F2240E9460
:104A1000F124252F0E94F224242F0C94F2240196D5
:104A2000272F0E94F2240C94F124DC01CB01FC011D
:104A3000F999FECF06C0F2BDE1BDF89A319600B4F7
:104A40000D9241505040B8F70895F894FFCF750487
:104A50007504C504C5042A054605A404A4044B0531
:104A6000BC05CB05CB05C9153D16D1159B159F156A
:104A7000D515A315D915E515AF153616B315E915D6
:104A8000B715ED151516BB15F1151C16C115F71543
:104A9000FF15A715DD15AB15E115C515FB150B1693
:104AA000251634169515CD15441652195819411965
:104AB0004C195E1964196A1907232F2318242F2310
:0C4AC0001824622383231824DA23E62341
:104ACC0044020100000001000000000000000C0185
:104ADC00000000040D000000000000280850011E1A
:104AEC000A140100000100E91AF21DBF1DEB1DE4C0
:104AFC001DE200E900EA00B500B600B700CD008366
:104B0C0001CC008A01920194012102230224022586
:104B1C0002260227022A02B300B4006F0070009F25
:104B2C0001CB019F02A002818283E200E900EA002E
:104B3C00B500B600B700CD008301CC008A0192010C
:104B4C0094012102230224022502260227022A02B2
:104B5C00B300B4006F0070009F01CB019F02A00254
:104B6C008182833536323331F7F6F5F493929466BD
:044B7C0097C67A025C
:00000001FF
